{
  "contractName": "Crud",
  "abi": [
    {
      "inputs": [],
      "name": "nextId",
      "outputs": [
        {
          "internalType": "uint256",
          "name": "",
          "type": "uint256"
        }
      ],
      "stateMutability": "view",
      "type": "function",
      "constant": true
    },
    {
      "inputs": [],
      "name": "getAllUsers",
      "outputs": [
        {
          "components": [
            {
              "internalType": "uint256",
              "name": "id",
              "type": "uint256"
            },
            {
              "internalType": "string",
              "name": "name",
              "type": "string"
            }
          ],
          "internalType": "struct Crud.User[]",
          "name": "",
          "type": "tuple[]"
        }
      ],
      "stateMutability": "view",
      "type": "function",
      "constant": true
    },
    {
      "inputs": [
        {
          "internalType": "string",
          "name": "name",
          "type": "string"
        }
      ],
      "name": "createUser",
      "outputs": [],
      "stateMutability": "nonpayable",
      "type": "function"
    },
    {
      "inputs": [
        {
          "internalType": "uint256",
          "name": "id",
          "type": "uint256"
        }
      ],
      "name": "getUser",
      "outputs": [
        {
          "internalType": "uint256",
          "name": "",
          "type": "uint256"
        },
        {
          "internalType": "string",
          "name": "",
          "type": "string"
        }
      ],
      "stateMutability": "view",
      "type": "function",
      "constant": true
    },
    {
      "inputs": [
        {
          "internalType": "uint256",
          "name": "id",
          "type": "uint256"
        },
        {
          "internalType": "string",
          "name": "name",
          "type": "string"
        }
      ],
      "name": "updateUser",
      "outputs": [],
      "stateMutability": "nonpayable",
      "type": "function"
    },
    {
      "inputs": [
        {
          "internalType": "uint256",
          "name": "id",
          "type": "uint256"
        }
      ],
      "name": "deleteUser",
      "outputs": [],
      "stateMutability": "nonpayable",
      "type": "function"
    }
  ],
  "bytecode": "0x60806040526001805534801561001457600080fd5b50610c1c806100246000396000f3fe608060405234801561001057600080fd5b50600436106100625760003560e01c806338f1484514610067578063507ffba51461008357806361b8ce8c1461009f578063b0467deb146100bd578063d85340e7146100ee578063e2842d791461010a575b600080fd5b610081600480360381019061007c9190610600565b610128565b005b61009d60048036038101906100989190610773565b610170565b005b6100a76101fc565b6040516100b491906107cb565b60405180910390f35b6100d760048036038101906100d29190610600565b610202565b6040516100e592919061086e565b60405180910390f35b6101086004803603810190610103919061089e565b6102f4565b005b61011261033a565b60405161011f9190610a52565b60405180910390f35b600061013382610435565b8154811061014457610143610a74565b5b906000526020600020906002020160008082016000905560018201600061016b91906104d3565b505050565b60006001549050600060405180604001604052808381526020018481525090806001815401808255809150506001900390600052602060002090600202016000909190919091506000820151816000015560208201518160010190805190602001906101dd929190610513565b505050600160008154809291906101f390610ad2565b91905055505050565b60015481565b60006060600061021184610435565b90506000818154811061022757610226610a74565b5b9060005260206000209060020201600001546000828154811061024d5761024c610a74565b5b906000526020600020906002020160010180805461026a90610b49565b80601f016020809104026020016040519081016040528092919081815260200182805461029690610b49565b80156102e35780601f106102b8576101008083540402835291602001916102e3565b820191906000526020600020905b8154815290600101906020018083116102c657829003601f168201915b505050505090509250925050915091565b80600061030084610435565b8154811061031157610310610a74565b5b90600052602060002090600202016001019080519060200190610335929190610513565b505050565b60606000805480602002602001604051908101604052809291908181526020016000905b8282101561042c57838290600052602060002090600202016040518060400160405290816000820154815260200160018201805461039b90610b49565b80601f01602080910402602001604051908101604052809291908181526020018280546103c790610b49565b80156104145780601f106103e957610100808354040283529160200191610414565b820191906000526020600020905b8154815290600101906020018083116103f757829003601f168201915b5050505050815250508152602001906001019061035e565b50505050905090565b600080600090505b60008054905081101561049257826000828154811061045f5761045e610a74565b5b9060005260206000209060020201600001540361047f57809150506104ce565b808061048a90610ad2565b91505061043d565b506040517f08c379a00000000000000000000000000000000000000000000000000000000081526004016104c590610bc6565b60405180910390fd5b919050565b5080546104df90610b49565b6000825580601f106104f15750610510565b601f01602090049060005260206000209081019061050f9190610599565b5b50565b82805461051f90610b49565b90600052602060002090601f0160209004810192826105415760008555610588565b82601f1061055a57805160ff1916838001178555610588565b82800160010185558215610588579182015b8281111561058757825182559160200191906001019061056c565b5b5090506105959190610599565b5090565b5b808211156105b257600081600090555060010161059a565b5090565b6000604051905090565b600080fd5b600080fd5b6000819050919050565b6105dd816105ca565b81146105e857600080fd5b50565b6000813590506105fa816105d4565b92915050565b600060208284031215610616576106156105c0565b5b6000610624848285016105eb565b91505092915050565b600080fd5b600080fd5b6000601f19601f8301169050919050565b7f4e487b7100000000000000000000000000000000000000000000000000000000600052604160045260246000fd5b61068082610637565b810181811067ffffffffffffffff8211171561069f5761069e610648565b5b80604052505050565b60006106b26105b6565b90506106be8282610677565b919050565b600067ffffffffffffffff8211156106de576106dd610648565b5b6106e782610637565b9050602081019050919050565b82818337600083830152505050565b6000610716610711846106c3565b6106a8565b90508281526020810184848401111561073257610731610632565b5b61073d8482856106f4565b509392505050565b600082601f83011261075a5761075961062d565b5b813561076a848260208601610703565b91505092915050565b600060208284031215610789576107886105c0565b5b600082013567ffffffffffffffff8111156107a7576107a66105c5565b5b6107b384828501610745565b91505092915050565b6107c5816105ca565b82525050565b60006020820190506107e060008301846107bc565b92915050565b600081519050919050565b600082825260208201905092915050565b60005b83811015610820578082015181840152602081019050610805565b8381111561082f576000848401525b50505050565b6000610840826107e6565b61084a81856107f1565b935061085a818560208601610802565b61086381610637565b840191505092915050565b600060408201905061088360008301856107bc565b81810360208301526108958184610835565b90509392505050565b600080604083850312156108b5576108b46105c0565b5b60006108c3858286016105eb565b925050602083013567ffffffffffffffff8111156108e4576108e36105c5565b5b6108f085828601610745565b9150509250929050565b600081519050919050565b600082825260208201905092915050565b6000819050602082019050919050565b61092f816105ca565b82525050565b600082825260208201905092915050565b6000610951826107e6565b61095b8185610935565b935061096b818560208601610802565b61097481610637565b840191505092915050565b60006040830160008301516109976000860182610926565b50602083015184820360208601526109af8282610946565b9150508091505092915050565b60006109c8838361097f565b905092915050565b6000602082019050919050565b60006109e8826108fa565b6109f28185610905565b935083602082028501610a0485610916565b8060005b85811015610a405784840389528151610a2185826109bc565b9450610a2c836109d0565b925060208a01995050600181019050610a08565b50829750879550505050505092915050565b60006020820190508181036000830152610a6c81846109dd565b905092915050565b7f4e487b7100000000000000000000000000000000000000000000000000000000600052603260045260246000fd5b7f4e487b7100000000000000000000000000000000000000000000000000000000600052601160045260246000fd5b6000610add826105ca565b91507fffffffffffffffffffffffffffffffffffffffffffffffffffffffffffffffff8203610b0f57610b0e610aa3565b5b600182019050919050565b7f4e487b7100000000000000000000000000000000000000000000000000000000600052602260045260246000fd5b60006002820490506001821680610b6157607f821691505b602082108103610b7457610b73610b1a565b5b50919050565b7f5573657220646f65736e27742065786973740000000000000000000000000000600082015250565b6000610bb06012836107f1565b9150610bbb82610b7a565b602082019050919050565b60006020820190508181036000830152610bdf81610ba3565b905091905056fea2646970667358221220ed54837e5b8fcc91df860dc1fd24ea6d8d7b3f291ae1986c3d7d72e24109d95f64736f6c634300080d0033",
  "immutableReferences": {},
  "source": "// SPDX-License-Identifier: MIT\npragma solidity ^0.8.13;\n\ncontract Crud {\n  struct User {\n    uint256 id;\n    string name;\n  }\n\n  User[] users;\n\n  uint256 public nextId = 1;\n\n  function getAllUsers() public view returns (User[] memory) {\n    return users;\n  }\n\n  function findUserPosition(uint256 id) internal view returns (uint256 index) {\n    for (uint256 i = 0; i < users.length; i++) {\n      if (users[i].id == id) {\n        return i;\n      }\n    }\n\n    revert(\"User doesn't exist\");\n  }\n\n  function createUser(string memory name) public {\n    uint256 id = nextId;\n    users.push(User(id, name));\n    nextId++;\n  }\n\n  function getUser(uint256 id) public view returns (uint256, string memory) {\n    uint256 i = findUserPosition(id);\n    return (users[i].id, users[i].name);\n  }\n\n  function updateUser(uint256 id, string memory name) public {\n    users[findUserPosition(id)].name = name;\n  }\n\n  function deleteUser(uint256 id) public {\n    delete users[findUserPosition(id)];\n  }\n}\n",
  "sourcePath": "/Users/ekravchenko/Documents/DApps/dapp-30/contracts/Crud.sol",
  "compiler": {
    "name": "solc",
    "version": "0.8.13+commit.abaa5c0e.Emscripten.clang"
  },
  "schemaVersion": "3.4.6",
  "updatedAt": "2022-05-02T10:52:45.216Z",
  "networkType": "ethereum",
  "devdoc": {
    "kind": "dev",
    "methods": {},
    "version": 1
  },
  "userdoc": {
    "kind": "user",
    "methods": {},
    "version": 1
  }
}