{
  "contractName": "SimpleStorage",
  "abi": [
    {
      "inputs": [
        {
          "internalType": "uint256",
          "name": "_data",
          "type": "uint256"
        }
      ],
      "name": "setData",
      "outputs": [],
      "stateMutability": "nonpayable",
      "type": "function"
    },
    {
      "inputs": [],
      "name": "getTwentyPercentOfData",
      "outputs": [
        {
          "internalType": "uint256",
          "name": "",
          "type": "uint256"
        }
      ],
      "stateMutability": "view",
      "type": "function",
      "constant": true
    },
    {
      "inputs": [],
      "name": "getData",
      "outputs": [
        {
          "internalType": "uint256",
          "name": "",
          "type": "uint256"
        }
      ],
      "stateMutability": "view",
      "type": "function",
      "constant": true
    }
  ],
  "bytecode": "0x608060405234801561001057600080fd5b50610284806100206000396000f3fe608060405234801561001057600080fd5b50600436106100415760003560e01c80633bc5de30146100465780635b4b73a914610064578063e785b9a414610080575b600080fd5b61004e61009e565b60405161005b91906100ec565b60405180910390f35b61007e60048036038101906100799190610138565b6100a7565b005b6100886100b1565b60405161009591906100ec565b60405180910390f35b60008054905090565b8060008190555050565b6000606460056000546100c49190610194565b6100ce919061021d565b905090565b6000819050919050565b6100e6816100d3565b82525050565b600060208201905061010160008301846100dd565b92915050565b600080fd5b610115816100d3565b811461012057600080fd5b50565b6000813590506101328161010c565b92915050565b60006020828403121561014e5761014d610107565b5b600061015c84828501610123565b91505092915050565b7f4e487b7100000000000000000000000000000000000000000000000000000000600052601160045260246000fd5b600061019f826100d3565b91506101aa836100d3565b9250817fffffffffffffffffffffffffffffffffffffffffffffffffffffffffffffffff04831182151516156101e3576101e2610165565b5b828202905092915050565b7f4e487b7100000000000000000000000000000000000000000000000000000000600052601260045260246000fd5b6000610228826100d3565b9150610233836100d3565b925082610243576102426101ee565b5b82820490509291505056fea26469706673582212204a295c40df0fa2529990652340e49f5d24e93fd18b365ae7a8f98dcbb29d4c9b64736f6c634300080d0033",
  "immutableReferences": {},
  "source": "// SPDX-License-Identifier: MIT\npragma solidity ^0.8.13;\n\ncontract SimpleStorage {\n  uint256 data;\n\n  function setData(uint256 _data) public {\n    data = _data;\n  }\n\n  function getTwentyPercentOfData() public view returns (uint256) {\n    return (data * 5) / 100;\n  }\n\n  function getData() public view returns (uint256) {\n    return data;\n  }\n}\n",
  "sourcePath": "/Users/ekravchenko/Documents/DApps/dapp-30/contracts/SimpleStorage.sol",
  "compiler": {
    "name": "solc",
    "version": "0.8.13+commit.abaa5c0e.Emscripten.clang"
  },
  "schemaVersion": "3.4.6",
  "updatedAt": "2022-05-01T16:25:55.322Z",
  "networkType": "ethereum",
  "devdoc": {
    "kind": "dev",
    "methods": {},
    "version": 1
  },
  "userdoc": {
    "kind": "user",
    "methods": {},
    "version": 1
  }
}